{
  "_format": "hh-sol-artifact-1",
  "contractName": "RockPaperScissors",
  "sourceName": "contracts/RockPaperScissors.sol",
  "abi": [
    {
      "anonymous": false,
      "inputs": [
        {
          "indexed": false,
          "internalType": "uint256",
          "name": "gameId",
          "type": "uint256"
        },
        {
          "indexed": false,
          "internalType": "address",
          "name": "player",
          "type": "address"
        },
        {
          "indexed": false,
          "internalType": "uint256",
          "name": "amount",
          "type": "uint256"
        }
      ],
      "name": "BetSent",
      "type": "event"
    },
    {
      "anonymous": false,
      "inputs": [
        {
          "indexed": false,
          "internalType": "uint256",
          "name": "gameId",
          "type": "uint256"
        },
        {
          "indexed": false,
          "internalType": "address",
          "name": "winner",
          "type": "address"
        },
        {
          "indexed": false,
          "internalType": "uint256",
          "name": "amount",
          "type": "uint256"
        }
      ],
      "name": "FundsDistributed",
      "type": "event"
    },
    {
      "anonymous": false,
      "inputs": [
        {
          "indexed": false,
          "internalType": "uint256",
          "name": "gameId",
          "type": "uint256"
        },
        {
          "indexed": false,
          "internalType": "address",
          "name": "player1",
          "type": "address"
        },
        {
          "indexed": false,
          "internalType": "uint256",
          "name": "amount1",
          "type": "uint256"
        },
        {
          "indexed": false,
          "internalType": "address",
          "name": "player2",
          "type": "address"
        },
        {
          "indexed": false,
          "internalType": "uint256",
          "name": "amount2",
          "type": "uint256"
        }
      ],
      "name": "FundsReturned",
      "type": "event"
    },
    {
      "anonymous": false,
      "inputs": [
        {
          "indexed": false,
          "internalType": "uint256",
          "name": "gameId",
          "type": "uint256"
        }
      ],
      "name": "GameAborted",
      "type": "event"
    },
    {
      "anonymous": false,
      "inputs": [
        {
          "indexed": false,
          "internalType": "uint256",
          "name": "gameId",
          "type": "uint256"
        },
        {
          "indexed": false,
          "internalType": "address",
          "name": "player1",
          "type": "address"
        },
        {
          "indexed": false,
          "internalType": "address",
          "name": "player2",
          "type": "address"
        }
      ],
      "name": "GameStarted",
      "type": "event"
    },
    {
      "anonymous": false,
      "inputs": [
        {
          "indexed": false,
          "internalType": "uint256",
          "name": "gameId",
          "type": "uint256"
        },
        {
          "indexed": false,
          "internalType": "address",
          "name": "player",
          "type": "address"
        },
        {
          "indexed": false,
          "internalType": "bytes32",
          "name": "commitment",
          "type": "bytes32"
        }
      ],
      "name": "MoveCommitted",
      "type": "event"
    },
    {
      "anonymous": false,
      "inputs": [
        {
          "indexed": false,
          "internalType": "uint256",
          "name": "gameId",
          "type": "uint256"
        },
        {
          "indexed": false,
          "internalType": "address",
          "name": "player",
          "type": "address"
        },
        {
          "indexed": false,
          "internalType": "enum RockPaperScissors.Move",
          "name": "move",
          "type": "uint8"
        }
      ],
      "name": "MoveRevealed",
      "type": "event"
    },
    {
      "anonymous": false,
      "inputs": [
        {
          "indexed": false,
          "internalType": "uint256",
          "name": "gameId",
          "type": "uint256"
        },
        {
          "indexed": false,
          "internalType": "address",
          "name": "winner",
          "type": "address"
        },
        {
          "indexed": false,
          "internalType": "enum RockPaperScissors.Move",
          "name": "move1",
          "type": "uint8"
        },
        {
          "indexed": false,
          "internalType": "enum RockPaperScissors.Move",
          "name": "move2",
          "type": "uint8"
        }
      ],
      "name": "WinnerDetermined",
      "type": "event"
    },
    {
      "inputs": [
        {
          "internalType": "uint256",
          "name": "gameId",
          "type": "uint256"
        }
      ],
      "name": "abortGame",
      "outputs": [],
      "stateMutability": "nonpayable",
      "type": "function"
    },
    {
      "inputs": [
        {
          "internalType": "uint256",
          "name": "",
          "type": "uint256"
        }
      ],
      "name": "games",
      "outputs": [
        {
          "internalType": "address",
          "name": "player1",
          "type": "address"
        },
        {
          "internalType": "address",
          "name": "player2",
          "type": "address"
        },
        {
          "internalType": "bytes32",
          "name": "commitment1",
          "type": "bytes32"
        },
        {
          "internalType": "bytes32",
          "name": "commitment2",
          "type": "bytes32"
        },
        {
          "internalType": "uint256",
          "name": "betAmount1",
          "type": "uint256"
        },
        {
          "internalType": "uint256",
          "name": "betAmount2",
          "type": "uint256"
        },
        {
          "internalType": "enum RockPaperScissors.Move",
          "name": "move1",
          "type": "uint8"
        },
        {
          "internalType": "enum RockPaperScissors.Move",
          "name": "move2",
          "type": "uint8"
        },
        {
          "internalType": "enum RockPaperScissors.GameState",
          "name": "state",
          "type": "uint8"
        },
        {
          "internalType": "uint256",
          "name": "timeout",
          "type": "uint256"
        }
      ],
      "stateMutability": "view",
      "type": "function"
    },
    {
      "inputs": [
        {
          "internalType": "uint256",
          "name": "gameId",
          "type": "uint256"
        }
      ],
      "name": "getBetAmounts",
      "outputs": [
        {
          "internalType": "uint256",
          "name": "",
          "type": "uint256"
        },
        {
          "internalType": "uint256",
          "name": "",
          "type": "uint256"
        }
      ],
      "stateMutability": "view",
      "type": "function"
    },
    {
      "inputs": [
        {
          "internalType": "uint256",
          "name": "gameId",
          "type": "uint256"
        }
      ],
      "name": "getGameState",
      "outputs": [
        {
          "internalType": "enum RockPaperScissors.GameState",
          "name": "",
          "type": "uint8"
        }
      ],
      "stateMutability": "view",
      "type": "function"
    },
    {
      "inputs": [
        {
          "internalType": "uint256",
          "name": "gameId",
          "type": "uint256"
        },
        {
          "internalType": "bytes32",
          "name": "commitment2",
          "type": "bytes32"
        }
      ],
      "name": "joinGame",
      "outputs": [],
      "stateMutability": "nonpayable",
      "type": "function"
    },
    {
      "inputs": [],
      "name": "nextGameId",
      "outputs": [
        {
          "internalType": "uint256",
          "name": "",
          "type": "uint256"
        }
      ],
      "stateMutability": "view",
      "type": "function"
    },
    {
      "inputs": [
        {
          "internalType": "uint256",
          "name": "gameId",
          "type": "uint256"
        },
        {
          "internalType": "enum RockPaperScissors.Move",
          "name": "move",
          "type": "uint8"
        },
        {
          "internalType": "bytes32",
          "name": "salt",
          "type": "bytes32"
        }
      ],
      "name": "revealMove",
      "outputs": [],
      "stateMutability": "nonpayable",
      "type": "function"
    },
    {
      "inputs": [],
      "name": "revealTimeout",
      "outputs": [
        {
          "internalType": "uint256",
          "name": "",
          "type": "uint256"
        }
      ],
      "stateMutability": "view",
      "type": "function"
    },
    {
      "inputs": [
        {
          "internalType": "uint256",
          "name": "gameId",
          "type": "uint256"
        }
      ],
      "name": "sendBet",
      "outputs": [],
      "stateMutability": "payable",
      "type": "function"
    },
    {
      "inputs": [
        {
          "internalType": "address",
          "name": "player2",
          "type": "address"
        },
        {
          "internalType": "bytes32",
          "name": "commitment1",
          "type": "bytes32"
        }
      ],
      "name": "startGame",
      "outputs": [],
      "stateMutability": "nonpayable",
      "type": "function"
    }
  ],
  "bytecode": "0x608060405262015180600255348015601657600080fd5b50612dbc806100266000396000f3fe6080604052600436106100915760003560e01c8063a47753e911610059578063a47753e914610197578063ac952671146101c0578063b135bbb0146101e9578063bc27d2b414610214578063ffde0c741461023057610091565b8063117a5b90146100965780634376cb34146100dc57806372722f67146101075780639e231e2d146101305780639e91729014610159575b600080fd5b3480156100a257600080fd5b506100bd60048036038101906100b89190611d53565b61026d565b6040516100d39a99989796959493929190611ea8565b60405180910390f35b3480156100e857600080fd5b506100f1610328565b6040516100fe9190611f44565b60405180910390f35b34801561011357600080fd5b5061012e60048036038101906101299190611fb0565b61032e565b005b34801561013c57600080fd5b5061015760048036038101906101529190611d53565b610867565b005b34801561016557600080fd5b50610180600480360381019061017b9190611d53565b610ba5565b60405161018e929190612003565b60405180910390f35b3480156101a357600080fd5b506101be60048036038101906101b99190612058565b610bdd565b005b3480156101cc57600080fd5b506101e760048036038101906101e29190612098565b610fad565b005b3480156101f557600080fd5b506101fe6111d9565b60405161020b9190611f44565b60405180910390f35b61022e60048036038101906102299190611d53565b6111df565b005b34801561023c57600080fd5b5061025760048036038101906102529190611d53565b611440565b60405161026491906120d8565b60405180910390f35b60006020528060005260406000206000915090508060000160009054906101000a900473ffffffffffffffffffffffffffffffffffffffff16908060010160009054906101000a900473ffffffffffffffffffffffffffffffffffffffff16908060020154908060030154908060040154908060050154908060060160009054906101000a900460ff16908060060160019054906101000a900460ff16908060060160029054906101000a900460ff1690806007015490508a565b60025481565b600080600085815260200190815260200160002090506002600381111561035857610357611de9565b5b8160060160029054906101000a900460ff16600381111561037c5761037b611de9565b5b146103bc576040517f08c379a00000000000000000000000000000000000000000000000000000000081526004016103b390612176565b60405180910390fd5b600060038111156103d0576103cf611de9565b5b8360038111156103e3576103e2611de9565b5b03610423576040517f08c379a000000000000000000000000000000000000000000000000000000000815260040161041a906121e2565b60405180910390fd5b806007015442111561046a576040517f08c379a00000000000000000000000000000000000000000000000000000000081526004016104619061224e565b60405180910390fd5b6000838360405160200161047f9291906122c5565b6040516020818303038152906040528051906020012090508160000160009054906101000a900473ffffffffffffffffffffffffffffffffffffffff1673ffffffffffffffffffffffffffffffffffffffff163373ffffffffffffffffffffffffffffffffffffffff1603610618576000600381111561050257610501611de9565b5b8260060160009054906101000a900460ff16600381111561052657610525611de9565b5b14610566576040517f08c379a000000000000000000000000000000000000000000000000000000000815260040161055d9061233d565b60405180910390fd5b808260020154146105ac576040517f08c379a00000000000000000000000000000000000000000000000000000000081526004016105a3906123a9565b60405180910390fd5b838260060160006101000a81548160ff021916908360038111156105d3576105d2611de9565b5b02179055507fdd17665bf97c2a169e97f4f62f36023bf40807eb797a922864394a910d5c37c885338660405161060b939291906123c9565b60405180910390a16107d5565b8160010160009054906101000a900473ffffffffffffffffffffffffffffffffffffffff1673ffffffffffffffffffffffffffffffffffffffff163373ffffffffffffffffffffffffffffffffffffffff1603610799576000600381111561068357610682611de9565b5b8260060160019054906101000a900460ff1660038111156106a7576106a6611de9565b5b146106e7576040517f08c379a00000000000000000000000000000000000000000000000000000000081526004016106de9061233d565b60405180910390fd5b8082600301541461072d576040517f08c379a00000000000000000000000000000000000000000000000000000000081526004016107249061244c565b60405180910390fd5b838260060160016101000a81548160ff0219169083600381111561075457610753611de9565b5b02179055507fdd17665bf97c2a169e97f4f62f36023bf40807eb797a922864394a910d5c37c885338660405161078c939291906123c9565b60405180910390a16107d4565b6040517f08c379a00000000000000000000000000000000000000000000000000000000081526004016107cb906124de565b60405180910390fd5b5b600060038111156107e9576107e8611de9565b5b8260060160009054906101000a900460ff16600381111561080d5761080c611de9565b5b1415801561085157506000600381111561082a57610829611de9565b5b8260060160019054906101000a900460ff16600381111561084e5761084d611de9565b5b14155b156108605761085f8561146c565b5b5050505050565b600080600083815260200190815260200160002090506002600381111561089157610890611de9565b5b8160060160029054906101000a900460ff1660038111156108b5576108b4611de9565b5b146108f5576040517f08c379a00000000000000000000000000000000000000000000000000000000081526004016108ec90612570565b60405180910390fd5b8060070154421161093b576040517f08c379a0000000000000000000000000000000000000000000000000000000008152600401610932906125dc565b60405180910390fd5b7fec5ea23f72a00a2e477d714dc012986271cd3c96ad95c7fe5f629ff79847fd218260405161096a9190611f44565b60405180910390a17f136a1f4c4a536c0c4c4387cca3b081593dfafe8808f0b125d8905dd5ade1b14f828260000160009054906101000a900473ffffffffffffffffffffffffffffffffffffffff1683600401548460010160009054906101000a900473ffffffffffffffffffffffffffffffffffffffff1685600501546040516109f99594939291906125fc565b60405180910390a160008160000160009054906101000a900473ffffffffffffffffffffffffffffffffffffffff1673ffffffffffffffffffffffffffffffffffffffff168260040154604051610a4f90612680565b60006040518083038185875af1925050503d8060008114610a8c576040519150601f19603f3d011682016040523d82523d6000602084013e610a91565b606091505b5050905060008260010160009054906101000a900473ffffffffffffffffffffffffffffffffffffffff1673ffffffffffffffffffffffffffffffffffffffff168360050154604051610ae390612680565b60006040518083038185875af1925050503d8060008114610b20576040519150601f19603f3d011682016040523d82523d6000602084013e610b25565b606091505b50509050818015610b335750805b610b72576040517f08c379a0000000000000000000000000000000000000000000000000000000008152600401610b69906126e1565b60405180910390fd5b60038360060160026101000a81548160ff02191690836003811115610b9a57610b99611de9565b5b021790555050505050565b600080600080848152602001908152602001600020600401546000808581526020019081526020016000206005015491509150915091565b600073ffffffffffffffffffffffffffffffffffffffff168273ffffffffffffffffffffffffffffffffffffffff1603610c4c576040517f08c379a0000000000000000000000000000000000000000000000000000000008152600401610c439061274d565b60405180910390fd5b3373ffffffffffffffffffffffffffffffffffffffff168273ffffffffffffffffffffffffffffffffffffffff1603610cba576040517f08c379a0000000000000000000000000000000000000000000000000000000008152600401610cb1906127b9565b60405180910390fd5b6000801b8103610cff576040517f08c379a0000000000000000000000000000000000000000000000000000000008152600401610cf690612825565b60405180910390fd5b600060016000815480929190610d1490612874565b9190505590506040518061014001604052803373ffffffffffffffffffffffffffffffffffffffff1681526020018473ffffffffffffffffffffffffffffffffffffffff1681526020018381526020016000801b8152602001600081526020016000815260200160006003811115610d8f57610d8e611de9565b5b815260200160006003811115610da857610da7611de9565b5b815260200160016003811115610dc157610dc0611de9565b5b8152602001600081525060008083815260200190815260200160002060008201518160000160006101000a81548173ffffffffffffffffffffffffffffffffffffffff021916908373ffffffffffffffffffffffffffffffffffffffff16021790555060208201518160010160006101000a81548173ffffffffffffffffffffffffffffffffffffffff021916908373ffffffffffffffffffffffffffffffffffffffff16021790555060408201518160020155606082015181600301556080820151816004015560a0820151816005015560c08201518160060160006101000a81548160ff02191690836003811115610ebe57610ebd611de9565b5b021790555060e08201518160060160016101000a81548160ff02191690836003811115610eee57610eed611de9565b5b02179055506101008201518160060160026101000a81548160ff02191690836003811115610f1f57610f1e611de9565b5b021790555061012082015181600701559050507f5b11b2d1f1a29e94e8fd947f6b5b713f3dd7fa6e1d9d5b65826d69b9aeb664eb813385604051610f65939291906128bc565b60405180910390a17f554a5d15a082f1f9f6e4aa87ae9c371a1374441e761d7f795ed28d4588d6b008813384604051610fa0939291906128f3565b60405180910390a1505050565b6000806000848152602001908152602001600020905060016003811115610fd757610fd6611de9565b5b8160060160029054906101000a900460ff166003811115610ffb57610ffa611de9565b5b1461103b576040517f08c379a000000000000000000000000000000000000000000000000000000000815260040161103290612976565b60405180910390fd5b8060010160009054906101000a900473ffffffffffffffffffffffffffffffffffffffff1673ffffffffffffffffffffffffffffffffffffffff163373ffffffffffffffffffffffffffffffffffffffff16146110cd576040517f08c379a00000000000000000000000000000000000000000000000000000000081526004016110c4906129e2565b60405180910390fd5b6000801b8203611112576040517f08c379a000000000000000000000000000000000000000000000000000000000815260040161110990612825565b60405180910390fd5b81816003018190555060028160060160026101000a81548160ff0219169083600381111561114357611142611de9565b5b0217905550600254426111569190612a02565b81600701819055507f554a5d15a082f1f9f6e4aa87ae9c371a1374441e761d7f795ed28d4588d6b008833384604051611191939291906128f3565b60405180910390a17f554a5d15a082f1f9f6e4aa87ae9c371a1374441e761d7f795ed28d4588d6b0088333846040516111cc939291906128f3565b60405180910390a1505050565b60015481565b600080600083815260200190815260200160002090506002600381111561120957611208611de9565b5b8160060160029054906101000a900460ff16600381111561122d5761122c611de9565b5b1461126d576040517f08c379a000000000000000000000000000000000000000000000000000000000815260040161126490612aa8565b60405180910390fd5b8060000160009054906101000a900473ffffffffffffffffffffffffffffffffffffffff1673ffffffffffffffffffffffffffffffffffffffff163373ffffffffffffffffffffffffffffffffffffffff160361131957600081600401541461130b576040517f08c379a000000000000000000000000000000000000000000000000000000000815260040161130290612b14565b60405180910390fd5b348160040181905550611401565b8060010160009054906101000a900473ffffffffffffffffffffffffffffffffffffffff1673ffffffffffffffffffffffffffffffffffffffff163373ffffffffffffffffffffffffffffffffffffffff16036113c55760008160050154146113b7576040517f08c379a00000000000000000000000000000000000000000000000000000000081526004016113ae90612b14565b60405180910390fd5b348160050181905550611400565b6040517f08c379a00000000000000000000000000000000000000000000000000000000081526004016113f7906124de565b60405180910390fd5b5b7f36531b87b8b796fc0365eb945351181ac6df1b606a1c3ac1e6a4af6a3b7863e282333460405161143493929190612b34565b60405180910390a15050565b600080600083815260200190815260200160002060060160029054906101000a900460ff169050919050565b600080600083815260200190815260200160002090506002600381111561149657611495611de9565b5b8160060160029054906101000a900460ff1660038111156114ba576114b9611de9565b5b146114fa576040517f08c379a00000000000000000000000000000000000000000000000000000000081526004016114f190612bdd565b60405180910390fd5b6000600381111561150e5761150d611de9565b5b8160060160009054906101000a900460ff16600381111561153257611531611de9565b5b1415801561157657506000600381111561154f5761154e611de9565b5b8160060160019054906101000a900460ff16600381111561157357611572611de9565b5b14155b6115b5576040517f08c379a00000000000000000000000000000000000000000000000000000000081526004016115ac90612c49565b60405180910390fd5b6000816005015482600401546115cb9190612a02565b905060008260060160019054906101000a900460ff1660038111156115f3576115f2611de9565b5b8360060160009054906101000a900460ff16600381111561161757611616611de9565b5b03611883577f6c6a07646be9cbce7fcbd248a9a77a3327af6f8a38f808dafd0510eec9e91cbc8460008560060160009054906101000a900460ff168660060160019054906101000a900460ff166040516116749493929190612c69565b60405180910390a17f136a1f4c4a536c0c4c4387cca3b081593dfafe8808f0b125d8905dd5ade1b14f848460000160009054906101000a900473ffffffffffffffffffffffffffffffffffffffff1685600401548660010160009054906101000a900473ffffffffffffffffffffffffffffffffffffffff1687600501546040516117039594939291906125fc565b60405180910390a160008360000160009054906101000a900473ffffffffffffffffffffffffffffffffffffffff1673ffffffffffffffffffffffffffffffffffffffff16846004015460405161175990612680565b60006040518083038185875af1925050503d8060008114611796576040519150601f19603f3d011682016040523d82523d6000602084013e61179b565b606091505b5050905060008460010160009054906101000a900473ffffffffffffffffffffffffffffffffffffffff1673ffffffffffffffffffffffffffffffffffffffff1685600501546040516117ed90612680565b60006040518083038185875af1925050503d806000811461182a576040519150601f19603f3d011682016040523d82523d6000602084013e61182f565b606091505b5050905081801561183d5750805b61187c576040517f08c379a000000000000000000000000000000000000000000000000000000000815260040161187390612cfa565b60405180910390fd5b5050611ce5565b6001600381111561189757611896611de9565b5b8360060160009054906101000a900460ff1660038111156118bb576118ba611de9565b5b1480156118fc57506003808111156118d6576118d5611de9565b5b8360060160019054906101000a900460ff1660038111156118fa576118f9611de9565b5b145b8061197d57506002600381111561191657611915611de9565b5b8360060160009054906101000a900460ff16600381111561193a57611939611de9565b5b14801561197c57506001600381111561195657611955611de9565b5b8360060160019054906101000a900460ff16600381111561197a57611979611de9565b5b145b5b806119fd575060038081111561199657611995611de9565b5b8360060160009054906101000a900460ff1660038111156119ba576119b9611de9565b5b1480156119fc5750600260038111156119d6576119d5611de9565b5b8360060160019054906101000a900460ff1660038111156119fa576119f9611de9565b5b145b5b15611b75578260000160009054906101000a900473ffffffffffffffffffffffffffffffffffffffff1690507f6c6a07646be9cbce7fcbd248a9a77a3327af6f8a38f808dafd0510eec9e91cbc84828560060160009054906101000a900460ff168660060160019054906101000a900460ff16604051611a809493929190612c69565b60405180910390a160008173ffffffffffffffffffffffffffffffffffffffff1683604051611aae90612680565b60006040518083038185875af1925050503d8060008114611aeb576040519150601f19603f3d011682016040523d82523d6000602084013e611af0565b606091505b5050905080611b34576040517f08c379a0000000000000000000000000000000000000000000000000000000008152600401611b2b90612d66565b60405180910390fd5b7f9f5926601e7fc353505f05fae61282ae5d67b716f95656849456e6aa7bbbbb5f858385604051611b6793929190612b34565b60405180910390a150611ce4565b8260010160009054906101000a900473ffffffffffffffffffffffffffffffffffffffff1690507f6c6a07646be9cbce7fcbd248a9a77a3327af6f8a38f808dafd0510eec9e91cbc84828560060160009054906101000a900460ff168660060160019054906101000a900460ff16604051611bf39493929190612c69565b60405180910390a160008173ffffffffffffffffffffffffffffffffffffffff1683604051611c2190612680565b60006040518083038185875af1925050503d8060008114611c5e576040519150601f19603f3d011682016040523d82523d6000602084013e611c63565b606091505b5050905080611ca7576040517f08c379a0000000000000000000000000000000000000000000000000000000008152600401611c9e90612d66565b60405180910390fd5b7f9f5926601e7fc353505f05fae61282ae5d67b716f95656849456e6aa7bbbbb5f858385604051611cda93929190612b34565b60405180910390a1505b5b60038360060160026101000a81548160ff02191690836003811115611d0d57611d0c611de9565b5b021790555050505050565b600080fd5b6000819050919050565b611d3081611d1d565b8114611d3b57600080fd5b50565b600081359050611d4d81611d27565b92915050565b600060208284031215611d6957611d68611d18565b5b6000611d7784828501611d3e565b91505092915050565b600073ffffffffffffffffffffffffffffffffffffffff82169050919050565b6000611dab82611d80565b9050919050565b611dbb81611da0565b82525050565b6000819050919050565b611dd481611dc1565b82525050565b611de381611d1d565b82525050565b7f4e487b7100000000000000000000000000000000000000000000000000000000600052602160045260246000fd5b60048110611e2957611e28611de9565b5b50565b6000819050611e3a82611e18565b919050565b6000611e4a82611e2c565b9050919050565b611e5a81611e3f565b82525050565b60048110611e7157611e70611de9565b5b50565b6000819050611e8282611e60565b919050565b6000611e9282611e74565b9050919050565b611ea281611e87565b82525050565b600061014082019050611ebe600083018d611db2565b611ecb602083018c611db2565b611ed8604083018b611dcb565b611ee5606083018a611dcb565b611ef26080830189611dda565b611eff60a0830188611dda565b611f0c60c0830187611e51565b611f1960e0830186611e51565b611f27610100830185611e99565b611f35610120830184611dda565b9b9a5050505050505050505050565b6000602082019050611f596000830184611dda565b92915050565b60048110611f6c57600080fd5b50565b600081359050611f7e81611f5f565b92915050565b611f8d81611dc1565b8114611f9857600080fd5b50565b600081359050611faa81611f84565b92915050565b600080600060608486031215611fc957611fc8611d18565b5b6000611fd786828701611d3e565b9350506020611fe886828701611f6f565b9250506040611ff986828701611f9b565b9150509250925092565b60006040820190506120186000830185611dda565b6120256020830184611dda565b9392505050565b61203581611da0565b811461204057600080fd5b50565b6000813590506120528161202c565b92915050565b6000806040838503121561206f5761206e611d18565b5b600061207d85828601612043565b925050602061208e85828601611f9b565b9150509250929050565b600080604083850312156120af576120ae611d18565b5b60006120bd85828601611d3e565b92505060206120ce85828601611f9b565b9150509250929050565b60006020820190506120ed6000830184611e99565b92915050565b600082825260208201905092915050565b7f4d6f7665732063616e206f6e6c792062652072657665616c656420696e20417760008201527f616974696e6752657665616c2073746174650000000000000000000000000000602082015250565b60006121606032836120f3565b915061216b82612104565b604082019050919050565b6000602082019050818103600083015261218f81612153565b9050919050565b7f4d6f76652063616e6e6f7420626520696e76616c696400000000000000000000600082015250565b60006121cc6016836120f3565b91506121d782612196565b602082019050919050565b600060208201905081810360008301526121fb816121bf565b9050919050565b7f52657665616c2074696d656f7574206578706972656400000000000000000000600082015250565b60006122386016836120f3565b915061224382612202565b602082019050919050565b600060208201905081810360008301526122678161222b565b9050919050565b60008160f81b9050919050565b60006122868261226e565b9050919050565b61229e61229982611e3f565b61227b565b82525050565b6000819050919050565b6122bf6122ba82611dc1565b6122a4565b82525050565b60006122d1828561228d565b6001820191506122e182846122ae565b6020820191508190509392505050565b7f4d6f766520616c72656164792072657665616c65640000000000000000000000600082015250565b60006123276015836120f3565b9150612332826122f1565b602082019050919050565b600060208201905081810360008301526123568161231a565b9050919050565b7f496e76616c696420636f6d6d69746d656e7420666f7220506c61796572203100600082015250565b6000612393601f836120f3565b915061239e8261235d565b602082019050919050565b600060208201905081810360008301526123c281612386565b9050919050565b60006060820190506123de6000830186611dda565b6123eb6020830185611db2565b6123f86040830184611e51565b949350505050565b7f496e76616c696420636f6d6d69746d656e7420666f7220506c61796572203200600082015250565b6000612436601f836120f3565b915061244182612400565b602082019050919050565b6000602082019050818103600083015261246581612429565b9050919050565b7f596f7520617265206e6f74206120706c6179657220696e20746869732067616d60008201527f6500000000000000000000000000000000000000000000000000000000000000602082015250565b60006124c86021836120f3565b91506124d38261246c565b604082019050919050565b600060208201905081810360008301526124f7816124bb565b9050919050565b7f47616d65206d75737420626520696e204177616974696e6752657665616c207360008201527f7461746520746f2061626f727400000000000000000000000000000000000000602082015250565b600061255a602d836120f3565b9150612565826124fe565b604082019050919050565b600060208201905081810360008301526125898161254d565b9050919050565b7f47616d652074696d656f757420686173206e6f74206578706972656400000000600082015250565b60006125c6601c836120f3565b91506125d182612590565b602082019050919050565b600060208201905081810360008301526125f5816125b9565b9050919050565b600060a0820190506126116000830188611dda565b61261e6020830187611db2565b61262b6040830186611dda565b6126386060830185611db2565b6126456080830184611dda565b9695505050505050565b600081905092915050565b50565b600061266a60008361264f565b91506126758261265a565b600082019050919050565b600061268b8261265d565b9150819050919050565b7f4661696c656420746f20726566756e6420626574730000000000000000000000600082015250565b60006126cb6015836120f3565b91506126d682612695565b602082019050919050565b600060208201905081810360008301526126fa816126be565b9050919050565b7f506c6179657220322063616e6e6f742062652061646472657373283029000000600082015250565b6000612737601d836120f3565b915061274282612701565b602082019050919050565b600060208201905081810360008301526127668161272a565b9050919050565b7f506c61796572732063616e6e6f74206265207468652073616d65000000000000600082015250565b60006127a3601a836120f3565b91506127ae8261276d565b602082019050919050565b600060208201905081810360008301526127d281612796565b9050919050565b7f436f6d6d69746d656e742063616e6e6f7420626520656d707479000000000000600082015250565b600061280f601a836120f3565b915061281a826127d9565b602082019050919050565b6000602082019050818103600083015261283e81612802565b9050919050565b7f4e487b7100000000000000000000000000000000000000000000000000000000600052601160045260246000fd5b600061287f82611d1d565b91507fffffffffffffffffffffffffffffffffffffffffffffffffffffffffffffffff82036128b1576128b0612845565b5b600182019050919050565b60006060820190506128d16000830186611dda565b6128de6020830185611db2565b6128eb6040830184611db2565b949350505050565b60006060820190506129086000830186611dda565b6129156020830185611db2565b6129226040830184611dcb565b949350505050565b7f47616d65206973206e6f742077616974696e6720666f7220706c617965722032600082015250565b60006129606020836120f3565b915061296b8261292a565b602082019050919050565b6000602082019050818103600083015261298f81612953565b9050919050565b7f4f6e6c7920706c6179657220322063616e206a6f696e00000000000000000000600082015250565b60006129cc6016836120f3565b91506129d782612996565b602082019050919050565b600060208201905081810360008301526129fb816129bf565b9050919050565b6000612a0d82611d1d565b9150612a1883611d1d565b9250828201905080821115612a3057612a2f612845565b5b92915050565b7f426574732063616e206f6e6c792062652073656e7420647572696e672041776160008201527f6974696e6752657665616c207374617465000000000000000000000000000000602082015250565b6000612a926031836120f3565b9150612a9d82612a36565b604082019050919050565b60006020820190508181036000830152612ac181612a85565b9050919050565b7f42657420616d6f756e7420616c72656164792073657400000000000000000000600082015250565b6000612afe6016836120f3565b9150612b0982612ac8565b602082019050919050565b60006020820190508181036000830152612b2d81612af1565b9050919050565b6000606082019050612b496000830186611dda565b612b566020830185611db2565b612b636040830184611dda565b949350505050565b7f57696e6e65722063616e206f6e6c792062652064657465726d696e656420696e60008201527f204177616974696e6752657665616c2073746174650000000000000000000000602082015250565b6000612bc76035836120f3565b9150612bd282612b6b565b604082019050919050565b60006020820190508181036000830152612bf681612bba565b9050919050565b7f426f7468206d6f766573206d7573742062652072657665616c65640000000000600082015250565b6000612c33601b836120f3565b9150612c3e82612bfd565b602082019050919050565b60006020820190508181036000830152612c6281612c26565b9050919050565b6000608082019050612c7e6000830187611dda565b612c8b6020830186611db2565b612c986040830185611e51565b612ca56060830184611e51565b95945050505050565b7f4661696c656420746f2072657475726e2066756e647300000000000000000000600082015250565b6000612ce46016836120f3565b9150612cef82612cae565b602082019050919050565b60006020820190508181036000830152612d1381612cd7565b9050919050565b7f4661696c656420746f2073656e642066756e647320746f2077696e6e65720000600082015250565b6000612d50601e836120f3565b9150612d5b82612d1a565b602082019050919050565b60006020820190508181036000830152612d7f81612d43565b905091905056fea2646970667358221220b1300072f8fce6a323cfcf43acee2a37560c487587af02e1d257311e7614818a64736f6c634300081c0033",
  "linkReferences": {},
  "deployedLinkReferences": {}
}